{
  "contractName": "RockPaperSicissors",
  "abi": [
    {
      "constant": true,
      "inputs": [],
      "name": "game_dealer",
      "outputs": [
        {
          "name": "",
          "type": "address"
        }
      ],
      "payable": false,
      "stateMutability": "view",
      "type": "function"
    },
    {
      "constant": true,
      "inputs": [],
      "name": "game_owner",
      "outputs": [
        {
          "name": "",
          "type": "address"
        }
      ],
      "payable": false,
      "stateMutability": "view",
      "type": "function"
    },
    {
      "constant": true,
      "inputs": [],
      "name": "playerFund",
      "outputs": [
        {
          "name": "",
          "type": "uint256"
        }
      ],
      "payable": false,
      "stateMutability": "view",
      "type": "function"
    },
    {
      "constant": true,
      "inputs": [],
      "name": "game_player",
      "outputs": [
        {
          "name": "",
          "type": "address"
        }
      ],
      "payable": false,
      "stateMutability": "view",
      "type": "function"
    },
    {
      "constant": true,
      "inputs": [],
      "name": "dealerFund",
      "outputs": [
        {
          "name": "",
          "type": "uint256"
        }
      ],
      "payable": false,
      "stateMutability": "view",
      "type": "function"
    },
    {
      "anonymous": false,
      "inputs": [
        {
          "indexed": false,
          "name": "winner",
          "type": "string"
        },
        {
          "indexed": false,
          "name": "amount",
          "type": "uint256"
        }
      ],
      "name": "GameState",
      "type": "event"
    },
    {
      "anonymous": false,
      "inputs": [
        {
          "indexed": false,
          "name": "winner",
          "type": "address"
        },
        {
          "indexed": false,
          "name": "amount",
          "type": "uint256"
        }
      ],
      "name": "GameEnded",
      "type": "event"
    },
    {
      "anonymous": false,
      "inputs": [
        {
          "indexed": true,
          "name": "_from",
          "type": "address"
        },
        {
          "indexed": true,
          "name": "_to",
          "type": "address"
        },
        {
          "indexed": false,
          "name": "_value",
          "type": "uint256"
        }
      ],
      "name": "Transfer",
      "type": "event"
    },
    {
      "constant": false,
      "inputs": [],
      "name": "game",
      "outputs": [],
      "payable": false,
      "stateMutability": "nonpayable",
      "type": "function"
    },
    {
      "constant": false,
      "inputs": [
        {
          "name": "dealer",
          "type": "address"
        },
        {
          "name": "fund",
          "type": "uint256"
        }
      ],
      "name": "setDealer",
      "outputs": [
        {
          "name": "success",
          "type": "bool"
        }
      ],
      "payable": false,
      "stateMutability": "nonpayable",
      "type": "function"
    },
    {
      "constant": false,
      "inputs": [
        {
          "name": "player",
          "type": "address"
        },
        {
          "name": "fund",
          "type": "uint256"
        }
      ],
      "name": "setPlayer",
      "outputs": [
        {
          "name": "success",
          "type": "bool"
        }
      ],
      "payable": false,
      "stateMutability": "nonpayable",
      "type": "function"
    },
    {
      "constant": false,
      "inputs": [
        {
          "name": "dealerAction",
          "type": "uint256"
        },
        {
          "name": "playerAction",
          "type": "uint256"
        },
        {
          "name": "bettingAmount",
          "type": "uint256"
        }
      ],
      "name": "compareActions",
      "outputs": [
        {
          "name": "results",
          "type": "string"
        }
      ],
      "payable": false,
      "stateMutability": "nonpayable",
      "type": "function"
    },
    {
      "constant": false,
      "inputs": [
        {
          "name": "sender",
          "type": "address"
        },
        {
          "name": "receiver",
          "type": "address"
        },
        {
          "name": "amount",
          "type": "uint256"
        }
      ],
      "name": "sendCoin",
      "outputs": [
        {
          "name": "sufficient",
          "type": "bool"
        }
      ],
      "payable": false,
      "stateMutability": "nonpayable",
      "type": "function"
    },
    {
      "constant": true,
      "inputs": [
        {
          "name": "addr",
          "type": "address"
        }
      ],
      "name": "getEthBalance",
      "outputs": [
        {
          "name": "",
          "type": "uint256"
        }
      ],
      "payable": false,
      "stateMutability": "view",
      "type": "function"
    },
    {
      "constant": true,
      "inputs": [
        {
          "name": "amount",
          "type": "uint256"
        },
        {
          "name": "conversionRate",
          "type": "uint256"
        }
      ],
      "name": "convert",
      "outputs": [
        {
          "name": "convertedAmount",
          "type": "uint256"
        }
      ],
      "payable": false,
      "stateMutability": "pure",
      "type": "function"
    },
    {
      "constant": true,
      "inputs": [
        {
          "name": "addr",
          "type": "address"
        }
      ],
      "name": "getBalance",
      "outputs": [
        {
          "name": "",
          "type": "uint256"
        }
      ],
      "payable": false,
      "stateMutability": "view",
      "type": "function"
    }
  ],
  "bytecode": "0x608060405234801561001057600080fd5b5061100b806100206000396000f3006080604052600436106100c5576000357c0100000000000000000000000000000000000000000000000000000000900463ffffffff168063014892a4146100ca5780630b40bd881461012f5780631207ca52146101b45780632c6419711461021957806339ea3c99146102705780634d2301cc146102c75780638410315b1461031e578063913861e91461034957806391d2dc48146103a057806396e4ee3d146103cb578063b72e1dd814610416578063c3fe3e28146104d0578063f8b2cb4f146104e7575b600080fd5b3480156100d657600080fd5b50610115600480360381019080803573ffffffffffffffffffffffffffffffffffffffff1690602001909291908035906020019092919050505061053e565b604051808215151515815260200191505060405180910390f35b34801561013b57600080fd5b5061019a600480360381019080803573ffffffffffffffffffffffffffffffffffffffff169060200190929190803573ffffffffffffffffffffffffffffffffffffffff169060200190929190803590602001909291905050506105f1565b604051808215151515815260200191505060405180910390f35b3480156101c057600080fd5b506101ff600480360381019080803573ffffffffffffffffffffffffffffffffffffffff1690602001909291908035906020019092919050505061074e565b604051808215151515815260200191505060405180910390f35b34801561022557600080fd5b5061022e610801565b604051808273ffffffffffffffffffffffffffffffffffffffff1673ffffffffffffffffffffffffffffffffffffffff16815260200191505060405180910390f35b34801561027c57600080fd5b50610285610827565b604051808273ffffffffffffffffffffffffffffffffffffffff1673ffffffffffffffffffffffffffffffffffffffff16815260200191505060405180910390f35b3480156102d357600080fd5b50610308600480360381019080803573ffffffffffffffffffffffffffffffffffffffff16906020019092919050505061084c565b6040518082815260200191505060405180910390f35b34801561032a57600080fd5b50610333610868565b6040518082815260200191505060405180910390f35b34801561035557600080fd5b5061035e61086e565b604051808273ffffffffffffffffffffffffffffffffffffffff1673ffffffffffffffffffffffffffffffffffffffff16815260200191505060405180910390f35b3480156103ac57600080fd5b506103b5610894565b6040518082815260200191505060405180910390f35b3480156103d757600080fd5b50610400600480360381019080803590602001909291908035906020019092919050505061089a565b6040518082815260200191505060405180910390f35b34801561042257600080fd5b506104556004803603810190808035906020019092919080359060200190929190803590602001909291905050506108a7565b6040518080602001828103825283818151815260200191508051906020019080838360005b8381101561049557808201518184015260208101905061047a565b50505050905090810190601f1680156104c25780820380516001836020036101000a031916815260200191505b509250505060405180910390f35b3480156104dc57600080fd5b506104e5610f54565b005b3480156104f357600080fd5b50610528600480360381019080803573ffffffffffffffffffffffffffffffffffffffff169060200190929190505050610f96565b6040518082815260200191505060405180910390f35b600082600260006101000a81548173ffffffffffffffffffffffffffffffffffffffff021916908373ffffffffffffffffffffffffffffffffffffffff1602179055508160066000600260009054906101000a900473ffffffffffffffffffffffffffffffffffffffff1673ffffffffffffffffffffffffffffffffffffffff1673ffffffffffffffffffffffffffffffffffffffff168152602001908152602001600020819055506001905092915050565b600081600660008673ffffffffffffffffffffffffffffffffffffffff1673ffffffffffffffffffffffffffffffffffffffff1681526020019081526020016000205410156106435760009050610747565b81600660008673ffffffffffffffffffffffffffffffffffffffff1673ffffffffffffffffffffffffffffffffffffffff1681526020019081526020016000206000828254039250508190555081600660008573ffffffffffffffffffffffffffffffffffffffff1673ffffffffffffffffffffffffffffffffffffffff168152602001908152602001600020600082825401925050819055508273ffffffffffffffffffffffffffffffffffffffff168473ffffffffffffffffffffffffffffffffffffffff167fddf252ad1be2c89b69c2b068fc378daa952ba7f163c4a11628f55a4df523b3ef846040518082815260200191505060405180910390a3600190505b9392505050565b600082600160006101000a81548173ffffffffffffffffffffffffffffffffffffffff021916908373ffffffffffffffffffffffffffffffffffffffff1602179055508160066000600160009054906101000a900473ffffffffffffffffffffffffffffffffffffffff1673ffffffffffffffffffffffffffffffffffffffff1673ffffffffffffffffffffffffffffffffffffffff168152602001908152602001600020819055506001905092915050565b600160009054906101000a900473ffffffffffffffffffffffffffffffffffffffff1681565b6000809054906101000a900473ffffffffffffffffffffffffffffffffffffffff1681565b600061086161085a83610f96565b600161089a565b9050919050565b60045481565b600260009054906101000a900473ffffffffffffffffffffffffffffffffffffffff1681565b60035481565b6000818302905092915050565b6060600083851415610997576040805190810160405280601a81526020017f4974732061205469652e2e2e20506c617920416761696e20212100000000000081525091507f8636accafe6e543252248bfbd3f92b39b3f233272c8670fda09bb18edb80e2f582846040518080602001838152602001828103825284818151815260200191508051906020019080838360005b83811015610954578082015181840152602081019050610939565b50505050905090810190601f1680156109815780820380516001836020036101000a031916815260200191505b50935050505060405180910390a1819150610f4c565b600090506000851415610a3a5760018414156109ee576040805190810160405280601681526020017f506c6179657220576f6e207468652047616d6520212100000000000000000000815250915060019050610a35565b6002841415610a34576040805190810160405280601681526020017f4465616c657220576f6e207468652047616d65202121000000000000000000008152509150600090505b5b610b76565b6001851415610ad9576000841415610a8d576040805190810160405280601681526020017f4465616c657220576f6e207468652047616d6520212100000000000000000000815250915060009050610ad4565b6002841415610ad3576040805190810160405280601681526020017f506c6179657220576f6e207468652047616d65202121000000000000000000008152509150600190505b5b610b75565b6002851415610b74576000841415610b2c576040805190810160405280601681526020017f506c6179657220576f6e207468652047616d6520212100000000000000000000815250915060019050610b73565b6001841415610b72576040805190810160405280601681526020017f4465616c657220576f6e207468652047616d65202121000000000000000000008152509150600090505b5b5b5b5b7f8636accafe6e543252248bfbd3f92b39b3f233272c8670fda09bb18edb80e2f582846040518080602001838152602001828103825284818151815260200191508051906020019080838360005b83811015610bdf578082015181840152602081019050610bc4565b50505050905090810190601f168015610c0c5780820380516001836020036101000a031916815260200191505b50935050505060405180910390a18015610d8957610c6f600160009054906101000a900473ffffffffffffffffffffffffffffffffffffffff16600260009054906101000a900473ffffffffffffffffffffffffffffffffffffffff16856105f1565b15610c7957610d84565b6001600560006101000a81548160ff0219169083151502179055506040805190810160405280601a81526020017f4465616c65722072616e206f7574206f66206d6f6e657920212100000000000081525091507fd4ba6fec82d9b0e8ffe50b9fed9e4be3b25c984ce1e0e016405a5528726e8a2c600260009054906101000a900473ffffffffffffffffffffffffffffffffffffffff16610d3b600260009054906101000a900473ffffffffffffffffffffffffffffffffffffffff1661084c565b604051808373ffffffffffffffffffffffffffffffffffffffff1673ffffffffffffffffffffffffffffffffffffffff1681526020018281526020019250505060405180910390a15b610f48565b610dd8600260009054906101000a900473ffffffffffffffffffffffffffffffffffffffff16600160009054906101000a900473ffffffffffffffffffffffffffffffffffffffff16856105f1565b15610de257610f47565b610e31600260009054906101000a900473ffffffffffffffffffffffffffffffffffffffff16600160009054906101000a900473ffffffffffffffffffffffffffffffffffffffff16856105f1565b15610e3b57610f46565b6001600560006101000a81548160ff0219169083151502179055506040805190810160405280601a81526020017f506c617965722072616e206f7574206f66206d6f6e657920212100000000000081525091507fd4ba6fec82d9b0e8ffe50b9fed9e4be3b25c984ce1e0e016405a5528726e8a2c600160009054906101000a900473ffffffffffffffffffffffffffffffffffffffff16610efd600160009054906101000a900473ffffffffffffffffffffffffffffffffffffffff1661084c565b604051808373ffffffffffffffffffffffffffffffffffffffff1673ffffffffffffffffffffffffffffffffffffffff1681526020018281526020019250505060405180910390a15b5b5b8191505b509392505050565b336000806101000a81548173ffffffffffffffffffffffffffffffffffffffff021916908373ffffffffffffffffffffffffffffffffffffffff160217905550565b6000600660008373ffffffffffffffffffffffffffffffffffffffff1673ffffffffffffffffffffffffffffffffffffffff1681526020019081526020016000205490509190505600a165627a7a7230582037be048f0af6470314f379ab88a175155ad309a941c65b443eff03011c12ab530029",
  "source": "// Solidity Contract for a Game of Rock, Paper and Scissors.\r\npragma solidity ^0.4.17;\r\n\r\n// Contract for Rock Paper Scissors Game\r\ncontract RockPaperSicissors{\r\n  // Parameters of game\r\n  // Owner Address\r\n  address public game_owner;\r\n  // Dealer Address\r\n  address public game_dealer;\r\n  // Player Address\r\n  address public game_player;\r\n\r\n  // Dealer's Fund\r\n  uint public dealerFund;\r\n  // Game Player's Fund\r\n  uint public playerFund;\r\n\r\n  bool ended;\r\n\r\n  // Events that get fired on Changes.\r\n  event GameState(string winner, uint amount);\r\n  event GameEnded(address winner, uint amount);\r\n\r\n  // For Metacoin, map address to uint type\r\n  mapping (address => uint) balances;\r\n  event Transfer(address indexed _from, address indexed _to, uint256 _value);\r\n\r\n  // Create the Game\r\n  // Assign Game Owner to do the Admin Stuff\r\n  function game() public {\r\n    game_owner = msg.sender;\r\n  }\r\n\r\n  // Function to set the Dealer values\r\n  function setDealer(address dealer, uint fund) public returns (bool success){\r\n    game_dealer = dealer;\r\n    balances[game_dealer] = fund;\r\n    return true;\r\n  }\r\n\r\n  // Function to set the Player Values\r\n  function setPlayer(address player, uint fund) public returns (bool success){\r\n    game_player = player;\r\n    balances[game_player] = fund;\r\n    return true;\r\n  }\r\n\r\n  // Compare Actions of Dealer and Player to decide who won the game\r\n  // Actions: 0: Rock, 1: Paper, 2: Scissor\r\n  function compareActions(uint dealerAction, uint playerAction, uint bettingAmount) public returns (string results){\r\n    // If both the dealer and Player do the same action like both \"rock\", the game is a Tie\r\n    if (dealerAction == playerAction){\r\n      results = 'Its a Tie... Play Again !!';\r\n      GameState(results, bettingAmount);\r\n      return results;\r\n    }\r\n\r\n    // If the actions are different, find out who is the winner\r\n    bool isPlayerWinner = false;\r\n\r\n    // If dealer Action is a Rock\r\n    if (dealerAction == 0){\r\n      // If Player Action is a Paper\r\n        if (playerAction == 1){\r\n          results = 'Player Won the Game !!';\r\n          isPlayerWinner = true;\r\n        }\r\n        // If Player Action is a Scissors\r\n        else if (playerAction == 2){\r\n          results = 'Dealer Won the Game !!';\r\n          isPlayerWinner = false;\r\n        }\r\n    }\r\n   // If dealer Action is a Paper\r\n    else if (dealerAction == 1){\r\n      // If Player Action is a Rock\r\n        if (playerAction == 0){\r\n          results = 'Dealer Won the Game !!';\r\n          isPlayerWinner = false;\r\n        }\r\n        // If Player Action is a Scissors\r\n        else if (playerAction == 2){\r\n          results = 'Player Won the Game !!';\r\n          isPlayerWinner = true;\r\n        }\r\n    }\r\n    // If dealer Action is a Scissor\r\n    else if (dealerAction == 2){\r\n      // If Player Action is a Rock\r\n        if (playerAction == 0){\r\n          results = 'Player Won the Game !!';\r\n          isPlayerWinner = true;\r\n        }\r\n        // If Player Action is a Paper\r\n        else if (playerAction == 1){\r\n          results = 'Dealer Won the Game !!';\r\n          isPlayerWinner = false;\r\n        }\r\n    }\r\n\r\n    // Update Game State\r\n    GameState(results, bettingAmount);\r\n\r\n    // If Someone won the game, send the coins from the losing person to the winning person\r\n    if (isPlayerWinner){\r\n      // If player won the match and dealer has the coins, send the coins to the player.\r\n      // Returns TRUE\r\n      if (sendCoin(game_dealer, game_player, bettingAmount)){\r\n        //Continue Game\r\n      }\r\n      // else, if the dealer does not have enough coins to send to the Player, tell that the dealer is now Bankrupt\r\n      else{\r\n        //end the game\r\n        ended = true;\r\n        results = 'Dealer ran out of money !!';\r\n        GameEnded(game_player, getEthBalance(game_player));\r\n      }\r\n    }\r\n    // else, if the dealer won the game, do the opposite\r\n    else{\r\n      if (sendCoin(game_player, game_dealer, bettingAmount)){\r\n        // continue game\r\n      }\r\n      else{\r\n        if (sendCoin(game_player, game_dealer, bettingAmount)){\r\n          // continue game\r\n        }\r\n        else{\r\n          // game ended\r\n          ended = true;\r\n          results = 'Player ran out of money !!';\r\n          GameEnded(game_dealer, getEthBalance(game_dealer));\r\n        }\r\n      }\r\n    }\r\n      return results;\r\n  }\r\n\r\n\r\n  // Function to Send or Recieve Game Coins using Smart Contract\r\n  // Inputs: Sender Address, Receiver Address, Amount to be sent\r\n  // Return: Is Amount Sufficient in Account of Sender ?? True/False\r\n  function sendCoin(address sender, address receiver, uint amount) public returns(bool sufficient){\r\n    // If not enough amount, return false\r\n    if (balances[sender] < amount) return false;\r\n    // If sender has balance avaialble, reduce it from his account\r\n    balances[sender] -= amount;\r\n    // Add the amount sent to the receiver's account\r\n    balances[receiver] += amount;\r\n    // Transfer the Amount from Sender to Receiver\r\n    Transfer(sender, receiver, amount);\r\n    return true;\r\n  }\r\n\r\n  // Function to get user's current Eth balance\r\n  function getEthBalance(address addr) public view returns(uint){\r\n    return convert(getBalance(addr),1);\r\n  }\r\n\r\n  // Function to Convert the Amount into Eth Balance using Conversion Rate\r\n  function convert(uint amount, uint conversionRate) public pure returns(uint convertedAmount){\r\n    return amount * conversionRate;\r\n  }\r\n\r\n  // Function to get the Balance for Current Account Address\r\n  function getBalance(address addr) public view returns (uint){\r\n    return balances[addr];\r\n  }\r\n}\r\n",
  "sourcePath": "C:\\Users\\ad1026858\\Desktop\\DAPP-Game\\contracts\\RockPaperSicissors.sol",
  "compiler": {
    "name": "solc",
    "version": "0.4.24+commit.e67f0147.Emscripten.clang"
  },
  "schemaVersion": "2.0.1",
  "updatedAt": "2018-08-06T18:34:21.537Z"
}